:020000040800F2
:10000000080B00203D0200086F2D0008052A00089B
:100010006D2D0008C31D000801320008000000001B
:10002000000000000000000000000000E3300008B5
:10003000C51D000800000000E1300008E5300008A0
:10004000570200085702000857020008570200082C
:10005000570200085702000857020008570200081C
:10006000570200085702000857020008570200080C
:1000700057020008570200085702000857020008FC
:1000800057020008570200085702000857020008EC
:1000900057020008570200085702000857020008DC
:1000A00057020008570200085702000857020008CC
:1000B00057020008570200085702000857020008BC
:1000C00057020008570200085702000857020008AC
:1000D000570200085702000857020008570200089C
:1000E00057020008570200085702000800F002F803
:1000F00000F094F80AA090E8000C82448344AAF12E
:100100000107DA4501D100F089F8AFF2090EBAE82B
:100110000F0013F0010F18BFFB1A43F0010318473B
:10012000084B0000284B0000103A24BF78C878C163
:10013000FAD8520724BF30C830C144BF04680C60ED
:10014000704700000023002400250026103A28BF35
:1001500078C1FBD8520728BF30C148BF0B60704739
:100160006E2900F04983702900F0A984662903F004
:10017000EB80652903F0E880672903F0E5806129B9
:1001800003F0E48003681B0A28BF41F0800169295D
:1001900000F02481642900F02181752900F01E817E
:1001A0006F2900F03684782900F07584E92900F081
:1001B000D183E42900F0CE83F52900F0CB83EF2929
:1001C00000F03384F82900F074840368DB0928BF49
:1001D00041F08001632900F05283732900F05783B6
:1001E000E32901F07180F32901F076800020704747
:1001F0001FB59DE8030000F037FA01F0C7F80400CE
:100200000020002103F08AF8401C606000200021DB
:1002100003F06EF8E0601FBD10B510BD01F088F866
:100220001146FFF7E5FF03F03DF801F065F903B46F
:10023000FFF7F2FF03BC01F095F900000948804781
:1002400009480047FEE7FEE7FEE7FEE7FEE7FEE7B8
:10025000FEE7FEE7FEE7FEE704480549054A064BD0
:100260007047000047310008ED0000080805002035
:10027000080B0020080700200807002070B506467C
:1002800000F0D6F9056806F10B0020F00704B4422F
:100290009CBF002070BD2B466A68BAB11068A042AE
:1002A00010D304F1080188423CBF5068586007D35E
:1002B0005168101941601168091B01605860146091
:1002C000101D70BD13465268002AE7D1214628460A
:1002D00000F0B6F90028DED170BD70B50446051FE8
:1002E00000F0A6F90068002C14BF446870BD002C13
:1002F00018BFAC423CBF20466468F8D301680A18B6
:10030000AA4218BF456003D12A680546114401601E
:1003100028684119A1421CBF6C6070BD61686960AA
:1003200021680844286070BD7CB51D4616460C0047
:10033000009001D02044401E074B7B442A4669466A
:100340000190304600F071FA05461CB10020694664
:1003500000F07EFA28467CBD1D0500000FB41CB5D8
:10036000084B06AA7B4469460090059800F05DFAA8
:1003700004460020694600F06BFA20461CBC5DF87C
:1003800014FB0000E904000070B50C460546012A84
:1003900005D02878800600D5EA69002302E0012311
:1003A00005E05B1C934202D2E05C0028F9D1A86909
:1003B000E618C01AA861286A18442862284600F086
:1003C00089F904E0D5E9012114F8010B9047B44202
:1003D000F8D3284600F094F970BD00002DE9F041F3
:1003E0000646002410687529314616A510D000F085
:1003F00098F9002802DA404213A507E031688A071D
:1004000001D512A502E0490704D511A5012401E098
:1004100000F090F900210A2206F1240709E0B0FB60
:10042000F2FCB0FBF2F302FB1C00303078541846AB
:10043000491C0028F3D123462A463046BDE8F04146
:1004400000F081B9000000002D0000002B0000002A
:10045000200000002DE9F05F894604464FF0000AB5
:10046000DFF874B1FB44C0F820A02046E16888475B
:10047000002874D0252806D0D4E901219047206AAD
:10048000401C2062F1E700265F462046E16888476D
:100490002028054607DB312D05D2781910F8200CED
:1004A00008B10643F1E7B00701D526F00406C4F809
:1004B0001CA00027C4F818A02A2D09D0284602F055
:1004C000E9FE38B304EB8708303DC8F8185019E04E
:1004D00059F8041B204604EB87029161E1688847C4
:1004E000012F054618D1E069002820DA26F0200601
:1004F0001DE0D8F8180000EB800005EB4000303814
:10050000C8F818002046E1688847054602F0C2FE98
:100510000028EED1012F0AD02E2D08D12046E16807
:1005200088477F1C0546022F46F02006C4DBA069E1
:10053000002803DA404246F00106A061F00701D02E
:1005400026F010066C2D0BD0682D09D04C2D39D01B
:100550006A2D35D0742D35D07A2D33D016E038E0A1
:10056000E1682F4620468847B842054609D16C2FDE
:1005700026D04FF48060E168064320468847054650
:1005800004E06C2F1AD04FF4807006430DB3A5F130
:100590004100192802D8203546F400664A4629460B
:1005A000204626604E46FFF7DBFD80B101280BD0C8
:1005B000F61D26F0070000F1080956E74020E4E7A1
:1005C0008020D8E70020D6E706F104094DE7284649
:1005D00052E7206ABDE8F09FC04600004FF00002DD
:1005E00000B5134694469646203922BFA0E80C5029
:1005F000A0E80C50B1F12001BFF4F7AF090728BF04
:10060000A0E80C5048BF0CC05DF804EB890028BF7F
:1006100040F8042B08BF704748BF20F8022B11F0A8
:10062000804F18BF00F8012B704770477047704724
:1006300000487047B004002070477047704770470B
:1006400038B504460A4600206946AFF3008000280A
:1006500008BF38BD02460099204600F03FFA01204D
:1006600038BD012000F05CBEF8B5AFF30080054650
:1006700000200C46102000BF0646A819A0420DD944
:10068000324669460020AFF30080070008BF00F043
:1006900047FE0098A04218BF0546C419FFF7C8FFDF
:1006A00005600746F01D20F007004619284600F0B7
:1006B0000AF8B44208BFF8BDA21B31463868BDE84D
:1006C000F84000F00BBA00210160C0E9011070474A
:1006D0001020704770B5044685690068C10601D5D1
:1006E000302600E02026C00707D070BDD4E90121E4
:1006F00030469047206A401C20626D1EF6D570BDC2
:1007000070B5044685690078C00707D170BDD4E98B
:10071000012120209047206A401C20626D1EF6D5E2
:1007200070BD09684A0501D540B27047C905FCD5BE
:1007300000B2704709684A0501D5C0B27047C905C3
:10074000FCD580B270472DE9F0470D469946924698
:10075000044600F124080168880604D5E06921F008
:100760001001216000E00120A84201DD471B00E0EC
:100770000027A1697A1902EB0900081AA061207804
:10078000C00602D42046FFF7A5FF002608E0D4E902
:1007900001211AF806009047206A401C761C20624E
:1007A0004E45F4DB2078C0060AD52046FFF792FFBD
:1007B00006E0D4E9012130209047206A401C2062E5
:1007C000381EA7F10107F4DC07E0D4E9012118F88D
:1007D00005009047206A401C2062281EA5F10105F3
:1007E000F3DC2046FFF78CFF2078000602D50220BC
:1007F000BDE8F0870120FBE711680268006A530535
:1008000001D508700AE0D30501D5088006E013067B
:1008100003D5C217C1E9000200E00860012070475B
:1008200001694A1C02610878704700B58FB0CDE9B4
:1008300001310021059105497944CDE903101146A4
:100840006846FFF707FE0FB000BD0000E5FFFFFFA1
:100850000A6802F8010B0A607047D1E900239A4246
:1008600002D2531C0B601070704710B5436913B16E
:10087000AFF3008001E0FFF787FD012010BD127883
:1008800000F124010A7000224A700122EDE711688C
:100890004FF0FF32E9E700002DE9FF5F15468A4679
:1008A0000446DFF8AC80F8440027D8E900103E4643
:1008B000CDE9001010E03AF816106A4602A800F0E0
:1008C0000FFD411C07D02178890603D5E26939184C
:1008D00091420DD80744761C2078800602D5E06945
:1008E000B84205DDAE42E6DB3AF816000028E2D158
:1008F000A069C01BA0612046FFF7ECFED8E90010FC
:10090000CDE90010002017E03AF818106A4602A856
:1009100000F0E6FCB0F1FF3F81460BD000250DF161
:10092000080B05E0D4E901211BF8050090476D1C78
:100930004D45F7D308F10100B0428046E4DB206A60
:10094000384420622046FFF7DBFEBDE8FF9F000031
:10095000924200002DE9F0418046D21D22F00702AC
:100960000025D2E90002F52915A614D0011E72F166
:10097000000106DA0023D0EB030063EB020211A6AC
:1009800008E0D8F800108B0701D50FA602E0490750
:1009900001D50EA601251146002408F1240704E024
:1009A00000F0B6F830323A55641C50EA0102F7D133
:1009B0002B46324621464046BDE8F041FFF7C3BE14
:1009C000000000002D0000002B00000020000000AF
:1009D00030B4002100F1240408E002F00705D20839
:1009E000303542EA4372DB086554491C52EA03057C
:1009F000F3D10468002310A2250707D5A40600D46C
:100A000021B1C46901230DA2641EC46130BCFFF78B
:100A10009ABE10B5044621461068FFF78BFE0246C9
:100A20002046BDE810400023D2E7D21D22F0070186
:100A3000D1E90023CCE700000000000030000000F6
:100A4000F0B40D460188090502D5214C7C4402E032
:100A50001F4C7C440E34002100F1240608E002F013
:100A60000F071209E75D42EA03721B097754491C1C
:100A700052EA0307F3D102780023120704D5702D40
:100A800006D009B1022311342246F0BCFFF75BBE49
:100A900001231034F8E770B504460D46214610686E
:100AA000FFF748FE024629462046BDE87040002375
:100AB000C6E7D21D22F00703D3E90023C0E703688D
:100AC000126843F0200303600823C3610023B7E7E3
:100AD000F440000000487047A80400200346406826
:100AE0008C46002818BF88423CBF03464068F8D3B4
:100AF00018681844884207D00CF1030020F0070062
:100B0000001D411A521A0146081D0A60FFF7E5BB95
:100B100030B5B0F10A024FEA900E71F100034EEACF
:100B2000817EB0EB0E0061EB91014FEA101E4EEAA0
:100B3000017E10EB0E0041EB11114FEA102E4EEA30
:100B4000016E10EB0E0041EB11214FEA104E4EEA00
:100B5000014E10EB0E0041EB1141401841F1000134
:100B60004FEAD00040EA41704FEAD10110EB800516
:100B70004FEA810444EA907444EB01046D1944EB9C
:100B80000404521BA3414FF0000348BF0A3200D5B2
:100B900030BD401C41F1000130BD70472DE9FF4FD1
:100BA0000C461E464FF0FF378BB0D2E90001DDF84E
:100BB00060800A908A46C1F30A5505B93D46002176
:100BC00008464FF00000BAF1000F00F4400005DACB
:100BD00000EB80004FF4400101EA50004FEA9059C9
:100BE000B9F1010F00DDB9460A9850EA4A000ED06B
:100BF00044F61050A5F2FF3545432F14B8F1000F0D
:100C00001ED07542291E1EDDC9F100021CE0B8F19C
:100C1000010F4FF0000001D0302103E0F24305E066
:100C20002154401CB042FBDB3046002200212154FD
:100C30000B99C1F80880C1E900200FB0BDE8F08F22
:100C4000BD1B6D1CDEE74A4600DA694206A800F0CB
:100C5000E1FB06AB93E8070003AB83E807005046CF
:100C60000A9900F0E6FC8DE80700A0F500501F3857
:100C700000900398002D0ADD42F21F014A46084405
:100C8000002303A90390684600F04FFF09E0A0F598
:100C900000504A461F38002303A90390684600F01D
:100CA00059FF8DE807000004000C03D04FF0FF301F
:100CB000410800E01046B8F1000F03D00022009276
:100CC00015461EE0751E05D4FFF722FF303262552F
:100CD0006D1EF9D5B3460122084302D000227F1CC5
:100CE00004E02078302801D100227F1E002A0997D5
:100CF00084D01DE0112D07DAFFF70AFF303262556C
:100D00006D1C50EA0102F5D1084302D00098C8B129
:100D10000EE00021681E05E0235C625C63542254EF
:100D2000401E491C8142F7DBAB46A81B401E0990C0
:100D3000002004F80B000B98099AC0F80880C0E95D
:100D4000002B7AE711264FF0000857E72DE9F04F06
:100D500088460446D21D22F0070191B0D1E9000176
:100D6000CDE90A0102F072FA02460B98C00F01D0D9
:100D70002D2007E02068810701D52B2002E02021EB
:100D800001EAC000032A099001D0072A05DB0346C7
:100D90004146204600F0FEFA0BE12078800601D59E
:100DA000E06900E00620B8F1650F814606D0B8F191
:100DB000660F18D0B8F1670F70D131E00020B9F19B
:100DC000110F009001DB112301E009F101030AAAD0
:100DD00001A90CA8FFF7E2FEDDE90C70002609F17D
:100DE0000105834647E001204B4600904FF0004745
:100DF0000AAA01A90CA8FFF7D1FEDDE90DB00C99F4
:100E00005D46002610B909F101000D18B9EB050087
:100E100003D4C0F1FF3609F10105A5EB09002BE071
:100E2000B9F1010F01DA4FF001090020B9F1110FFA
:100E30000090484601DD112300E003460AAA01A9FB
:100E40000CA8FFF7ABFEDDE90C704D46002683468B
:100E5000207800070AD4AB4500DA5D4601A8012DD1
:100E600004DD411911F8011C302907D04F4502DA81
:100E700017F1040F04DA012082460FE06D1EEEE741
:100E8000002F02DCED1B3E4403E0781CA84200DD8D
:100E90007D1CB81B00F1010A4FF0004720780007C5
:100EA00003D4AA4501DB4FF0FF3A0021B7F1004F10
:100EB0000DF143088DF8431024D002202B23002F7E
:100EC00001DA7F422D230A21021EA0F1010000DC7D
:100ED0005FB197FBF1FC97FBF1F201FB1C7C17461D
:100EE0000CF1300C08F801CDEEE7A8F10100037019
:100EF0002188090501D5452100E06521A0F10108FF
:100F000000F8011C09980FA9A1EB0807FF1D00B10B
:100F10000120411901EBEA70A1693844081A401E0A
:100F2000A0612078C00602D42046FFF7D3FB0998C1
:100F300028B1D4E901219047206A401C2062207822
:100F4000C00622D52046FFF7C5FB1EE0002E04DBBD
:100F5000B34502DD01A8805D00E03020D4E9012125
:100F60009047206A401C2062761CAAF101005FEACB
:100F7000000A0AD100F00AFAC0680168405CD4E9AE
:100F800001219047206A401C2062281EA5F101051E
:100F9000DCDC07E0D4E9012118F8010B9047206A56
:100FA000401C2062381EA7F10107F3DC2046FFF742
:100FB000A7FB032011B041E62DE9F04F04460D4692
:100FC000D21D22F0070089B0D0E900974846394683
:100FD00002F03CF90246F80F01D02D2307E020680B
:100FE000810701D52B2302E0202101EAC0038DF8FF
:100FF00020300BB1012000E00020032A824601D0FE
:10100000072A04DB2946204600F0C4F93FE1207896
:10101000800601D40D2500E0E569C7F30A560D2DC1
:1010200049DA00214FEA175B08464FF00000002F15
:1010300000F4400007DA00EB80004FF4400100EBC1
:10104000D07001EA60008115012901DD4FF0FF3108
:1010500000224FEA850CBCF1180F06D31346ACF101
:1010600018004FF08052C24003E04FF4801323FA7F
:101070000CF30CF10C0CBCF1200F04D3ACF1200CE0
:1010800009FA0CF001E007FA0CF000294FF00048D3
:1010900001DD18B90FE00ED140450CD319EB020960
:1010A0005F4121B9404502D19F4329EA0209BBEBC8
:1010B000175F00D0761C2088000502D57B48784455
:1010C00002E07A487844193808AA302302F80A3036
:1010D000037C0AF10101002E0AF1020A53546A4608
:1010E00002DC4FF0300101E04FF031014FF0010818
:1010F0008DF8001002D0A6F2FF3603E059EA47014E
:1011000000D06B4E002D02DC2178090704D54FF08A
:1011100002082E218DF80110C44600210BE0C7F310
:1011200003433F01C35C491C6D1E02F808300529CA
:1011300008F1010801DA002DF1DC00210CE000EBE0
:101140001973491C1B786D1E082902F808304FEAF4
:10115000091908F1010801DA002DF0DC21688B067D
:1011600002D516E0A8F10108E04505DD02EB080311
:1011700013F8013C302BF5D0B8F1000F09DD02EB7C
:10118000080313F8013C2E2B03D1090701D4A8F161
:101190000108002D05DD3E2102F808106D1E08F142
:1011A0000108407C002E02F8080008F1010804DA6A
:1011B0002D20764202F8080002E02B2002F80800F9
:1011C0000A214FF47A70864208F101080BDB96FB86
:1011D000F0F3303302F8083096FBF0F308F1010821
:1011E00000FB136601E0642E0CDB642096FBF0F339
:1011F000303302F8083096FBF0F308F1010800FBE9
:10120000136601E00A2E06DB96FBF1F0303002F89F
:10121000080008F1010896FBF1F001FB1060303086
:1012200002F80800A16908F1010808EB050202EBC9
:101230000A00081AA0612078C00602D42046FFF7F1
:1012400049FA216A08AE01EB0A00206204E0D4E901
:10125000012116F8010B9047BAF1010AF7D2207864
:10126000C00602D52046FFF735FA6E4609E016F8AB
:10127000010B3E280FD0D4E901219047206A401C81
:101280002062B8F10108F2D22046FFF739FA09B01E
:101290000320BDE8F08F206A2844206203E0D4E9EF
:1012A0000121302090476D1EEBD3F8E7BD3A0000D6
:1012B00002FCFFFF10B5436913B1AFF3008001E0FA
:1012C000FFF7EAFA012010BD128800F124018284A0
:1012D0000022C2840122EDE711684FF0FF32E9E7F6
:1012E00070B516460C46054600F048F8036893F8BA
:1012F0000101012806D0FF2C0FD8185D68B101202C
:101300002C7070BDD3F807013246214603F2071353
:1013100003442846BDE8704018474FF0FF3070BDC9
:1013200010B500F0F7F8BDE8104000F0EEB87047D7
:101330007546FFF7CFFBAE4605006946534620F0E1
:101340000700854618B020B5FEF786FFBDE82040AF
:101350004FF000064FF000074FF000084FF0000B71
:1013600021F00701AC46ACE8C009ACE8C009ACE824
:10137000C009ACE8C0098D467047000010B500F008
:1013800005F8001D10BD00BF951F00000048704704
:10139000C80400202DE9F0411F46044603260168D9
:1013A000072A01F4006004DB08B116A505E016A5C4
:1013B00003E008B115A500E015A521F0100020609C
:1013C000A069C01EA0610FB1401EA0612046FFF7BA
:1013D00081F94FB1D4E9012138469047206A401C79
:1013E0002062C01C206206E0206AFAE7D4E90121ED
:1013F00015F8010B9047761EF8D22046FFF780F9CA
:10140000BDE8F0814E414E006E616E00494E4600CF
:10141000696E66002DE9F047814616468AB0354868
:1014200078440DC88DE80D0032487844801C03AC28
:101430000DC884E80D0041F69B300844372190FB2D
:10144000F1F290FBF1F5A5F1800501FB12041B3CC4
:1014500002D56442012000E00020DFF898A0804619
:101460000027FA44AAF1BE0A0EE0E0070AD032468D
:10147000684607EB470101230AEB810100F06AFB94
:101480008DE8070064107F1C002CEED1194F7F44BB
:10149000AE3F19E0E80715D007EB04100DF1180A6C
:1014A00090E80E008AE80E00C068F04201D1981959
:1014B00008903246012306A903A800F04BFB03ABBA
:1014C00083E807006D10641C002DE3D14FF0010389
:1014D00032466946B8F1000F03A802D000F025FBA0
:1014E00001E000F037FBC9E90001C9F808200AB0A3
:1014F000BDE8F087EC37000010B50446AFF300807C
:101500002046BDE81040FEF792BE002801D000F052
:1015100029B8704710B5012805D0002103A000F0BC
:1015200027F8012010BD09A1F8E7000053494752F0
:10153000544D454D3A204F7574206F6620686561A3
:1015400070206D656D6F7279000000003A2048656B
:101550006170206D656D6F727920636F7272757046
:101560007465640001491820ABBEFEE72600020046
:1015700070B505460C460A2000E06D1C00F052F8DC
:1015800035B128780028F8D102E0641C00F04AF850
:1015900014B120780028F8D1BDE870400A2000F08E
:1015A00041B800004FF0013C50F8042B51F8043BC7
:1015B0009A4221D1A2EB0C03934313EACC1317D127
:1015C00050F8042B51F8043B9A4215D1A2EB0C03BE
:1015D000934313EACC130BD150F8042B51F8043B7E
:1015E0009A4209D1A2EB0C03934313EACC13DBD04C
:1015F0004FF00000704700BFD01A01BAB1FA81F174
:1016000001F0180122FA01F0CB40C1F12001DBB258
:10161000C0B2C01A2CFA01F3D11A914311EAC311D6
:10162000E6D1704708B569468DF800000320ABBECF
:1016300008BD5FEA400C08BF91F0000F4FEA8C2311
:101640004FEAC12243EA51514FEA1C5018BF00F53E
:10165000F0404FEA300018BF41F000415FEA6C5C97
:1016600000F02980BCF1FF3F08BF40F08040704788
:10167000130C06BF12044FF0100C4FF0000C130EA9
:1016800004BF12020CF1080C130F04BF12010CF17D
:10169000040C930F04BF92000CF1020CD30F04BF93
:1016A00052000CF1010C11464FF00002A0F11F0096
:1016B000A0EB0C00704711F0004F08BF704731F0ED
:1016C00000413FF4D5AF0B0C06BF09044FF0100CDE
:1016D0004FF0000C0B0E04BF09020CF1080C0B0FAD
:1016E00004BF09010CF1040C8B0F04BF89000CF13D
:1016F000020CCB0F04BF49000CF1010CCCF120030C
:10170000A0EB0C0022FA03F302FA0CF241EA030107
:1017100000F10100704720F07F4C80EA030023F0C5
:101720007F47ACEB070303F57C5300F0004003F167
:10173000FF032DE980494FEA154B09B44FEA1443E2
:1017400025EA0B4E24EA03480FF2042606EB132782
:1017500049083E785FEA320203FB0667C7F50007D7
:1017600007FB06F64FEA54374FEAD64606F1020663
:1017700007FB066CCCF1005C4FEA1C472CEA074CD7
:1017800007FB06F40CFB06F504EB15464FEA96162C
:1017900034BF00204FF000404FEAD13706FB07FC72
:1017A0004FEA1C4C0CFB0BF7D21B03FB0CF761EB55
:1017B00007010CFB0EF7B0EB074072EB17420CFB76
:1017C00008F734BFA2EB0742B2EB074261EB1741C7
:1017D0004FEA0C444FEA910706FB07FC4FEA1C4C0A
:1017E0000CFB0BF7B0EBC74072EB573203FB0CF767
:1017F00034BFA2EBC742B2EBC74261EB57310CFBDF
:101800000EF7B0EBC70072EB57720CFB08F734BF52
:10181000A2EBC702B2EBC70261EB5771039F4FEA1D
:10182000816141EA921104EBCC044FEAD1374FEACF
:10183000826206FB07FC42EA90124FEA80604FEAA0
:101840001C4C0CFB0BF7D21B03FB0CF761EB0701E5
:101850000CFB0EF7B0EB074072EB17420CFB08F7DE
:1018600034BFA2EB0742B2EB074261EB17414FEAEC
:101870008C554FEA910704EB9C2406FB07FC4FEACA
:101880001C4C0CFB0BF7B0EBC74072EB573203FB61
:101890000CF734BFA2EBC742B2EBC74261EB573142
:1018A0000CFB0EF7B0EBC70072EB57720CFB08F79E
:1018B00034BFA2EBC702B2EBC70261EB577115EB65
:1018C0004C254FEA816141EA92114FEA82624FEA68
:1018D000D13742EA901206FB07FC44F100044FEABC
:1018E00080604FEA1C4C0CFB0BF7D21B03FB0CF780
:1018F00061EB07010CFB0EF7B0EB074072EB1742F0
:101900000CFB08F734BFA2EB0742B2EB074261EBD6
:10191000174115EB1C154FEA813141EA92414FEA1C
:10192000823242EA90424FEA80304FEA0C7644F12C
:10193000000448EA03434EEA0B484FF0000EB2EBB6
:10194000080C71EB030724BF624639464EEB0E0EBE
:101950004FF0000B0018524149414BEB0B0BB2EB1F
:10196000080C71EB03077BF1000B24BF624639467C
:101970004EEB0E0E4FF0000B0018524149414BEB5D
:101980000B0BB2EB080C71EB03077BF1000B24BFD0
:10199000624639464EEB0E0E51EA020718BF46F07A
:1019A000010616EB0E7655F1000254F1000103D545
:1019B000BDE88901BDE80088BDE88901BDE80048AF
:1019C000B619524141EB0101A3F101037047808038
:1019D0007F7E7D7C7B7A7978777676757473727189
:1019E00071706F6E6E6D6C6C6B6A6A696868676641
:1019F00066656464636362616160605F5F5E5E5DD3
:101A00005D5C5C5B5B5A5A59595858575756565546
:101A100055555454535352525251515050504F4FA8
:101A20004F4E4E4D4D4D4C4C4C4B4B4B4A4A4A49F8
:101A3000494948484847474747464646454545443B
:101A40004444444343434342424242414141002BC8
:101A50009C4630D477002BD01CB54FEA370703B42F
:101A60004FF010004FF01001BAF1000F06D0BCF19A
:101A7000000FDCBF40F0080040F008014FF000000C
:101A80000FBCBDE810400BF1010BBBF1010F08BF0B
:101A90005FEA170722BF12F1010211F101014FF0B5
:101AA000004143F1000300F0004043EA00007047AA
:101AB000F9D35708D0E746EA064613F1400F4FEA3C
:101AC00016461FDD13F1200FDFBF16430A46002123
:101AD00020335B42BED0C3F1200746EA064602FA35
:101AE00007F74FEA164646EA0706C3F1200722FA2F
:101AF00003F201FA07F721FA03F14FF0000342EA7B
:101B00000702A7E746EA020646EA06464FEA1646F5
:101B100046EA0106BCBF46EA0646360C4FF0000313
:101B20004FF000024FF0000194E72DE9804C9A46F7
:101B3000934670B491E8380007C831EA400C48BFBA
:101B400034EA430C03D5FFF7E6FDFFF780FFF0BC56
:101B5000BDE8008C2DE9804C9A46934670B491E81C
:101B6000380007C810F0804F08BF13F0804F03D132
:101B700000F005F8FFF76BFFF0BCBDE8008C20F02B
:101B80007F4780EA030023F07F4C07EB0C03A3F5AB
:101B90007C5300F00040A3F1FE0392F0000F00F030
:101BA000B38095F0000F00F077802DE901494FEAEE
:101BB00011404FEA144621EA004800FB06FC24EAE3
:101BC000064708FB06F607FB08F800FB07F718EBCB
:101BD00006484CEB164C4FEA124B18EB07484FEAFD
:101BE00015464CEB174022EA0B4E0BFB06FC25EA90
:101BF00006470EFB06F607FB0EFE0BFB07F71EEB78
:101C0000064E4CEB164C4FF000061EEB074E4CEB0D
:101C1000174B18EB0B0840F1000018EB0E0B58EBBC
:101C2000000840F100008F1A4FF000013CBFC9438B
:101C3000661B14BFB5EB040C00213CBFC943F61B67
:101C40004FEA17444EEA8E0E27EA04454FEA1C4736
:101C500004FB07622CEA074C05FB07F70CFB05F6B3
:101C600004FB0CFC16EB074642EB174216EB0C4646
:101C700042EB1C421BEB060658EB0202414146EACE
:101C80009E0601D5BDE80189B619524141EB01011B
:101C9000A3F10103BDE801894FEA14454FEA11475A
:101CA00024EA054621EA074C05FB07F406FB07F783
:101CB0000CFB06F105FB0CFC11EB074144EB174450
:101CC0004FEA124711EB0C4144EB1C4422EA074C4B
:101CD00005FB07F206FB07F70CFB06F605FB0CFC01
:101CE00016EB074642EB174216EB0C4642EB1C453F
:101CF0006A1854F1000148BF7047B619524141EBD0
:101D00000101A3F10103704795F0000F37D04FEAAE
:101D100011424FEA144721EA024624EA074C02FB2B
:101D200007F106FB07F70CFB06F402FB0CFC14EBB7
:101D3000074441EB17414FEA154714EB0C4441EBC4
:101D40001C4125EA074C02FB07F506FB07F70CFBD5
:101D500006F602FB0CFC16EB074645EB174516EBA7
:101D60000C4645EB1C42121951F1000148BF704767
:101D7000B619524141EB0101A3F1010370474FEA4B
:101D800014454FEA114724EA054621EA074C05FBB2
:101D900007F106FB07F70CFB06F24FF0000605FB08
:101DA0000CFC12EB074241EB174112EB0C4251EBDA
:101DB0001C4148BF7047921841EB0101A3F1010398
:101DC0007047FEE7704772B6FEE7000070B5044644
:101DD00000F004F90546601C02D004480078044471
:101DE00000F0FCF8401BA042FAD370BD00000020B8
:101DF0002DE9F84FDFF8B891002409F1040A0AF13F
:101E0000040B23460F270BF1040EC9E00125A54062
:101E10002A40AA427DD1674ED1F804C0ACEB060837
:101E2000B44532D014DCBCF1030F3AD009DCBCF16C
:101E3000000F2AD0BCF1010F1CD0BCF1020F31D130
:101E40001DE0BCF1110F17D0BCF1120F2AD119E01F
:101E5000B8F5881F19D006DCB8F5803F15D0B8F565
:101E6000801F1FD111E0B8F5001F0ED0B8F5041F78
:101E700018D10AE0CB6815E0CB681B1D12E0CB68D7
:101E800008330FE0CB680C330CE08B682BB1012BCF
:101E90004FF0080303D0456104E0042302E005612C
:101EA00000E00023FF2A01D8064601E000F1040605
:101EB0004FEA840501D9A5F12005D6F8008007FA7C
:101EC00005FC28EA0C0803FA05F548EA0508C6F8F7
:101ED00000804D68ED0062D5374DAE6946F00106D1
:101EE000AE61AD6924F0030605F001050095334DA0
:101EF00006EB050CDCF80850A607360F07FA06F8C3
:101F000025EA0805DFF8B880404503D14FF0000806
:101F100017E044E0DFF8AC80404502D14FF0010803
:101F20000FE0DFF8A480404502D14FF0020808E03E
:101F3000DFF89880404502D14FF0030801E04FF0F0
:101F4000040808FA06F848EA0508CCF808804D6845
:101F5000D9F80060ED034D4601D5164300E09643E5
:101F60002E604D68DAF80060AD03554601D5164382
:101F700000E096432E604D68DBF80060ED025D46A0
:101F800001D5164300E096432E604D68DEF80060F0
:101F9000AD02754601D5164300E096432E60641CE1
:101FA0000D682A46E5407FF431AFBDE8F88F0000A8
:101FB0000004014000001110001002400000014028
:101FC00000080140000C01400010014000140140D5
:101FD0000AB1016170470904FBE70000014880680D
:101FE000704700000000002070B5040025D094F870
:101FF0003D00002520B984F83C50204600F050F9FF
:10200000242084F83D002068016821F0010101606E
:102010002068016841F4004101602068016821F4F2
:102020000041016000F08AFA4D4A6168914201D88E
:102030004C4900E04C49884201D2012070BD4B4917
:102040002368B0FBF1F15E6826F03F060E435E6048
:102050006368934206D94FF4967359434FF47A73E9
:10206000B1FBF3F12368491C1E6A26F03F06314399
:1020700019626168914210D84900401EB0FBF1F22C
:10208000521CC2F30B02042A01D2042022E0B0FB4E
:10209000F1F0401CC0F30B001CE0A268F2B301EBAE
:1020A000C10303EB0116431EB3FBF6F35B1C43F4C1
:1020B00080431B0549D092B301EBC10202EB011131
:1020C000401EB0FBF1F0401CC0F30B0040F4804018
:1020D00040F400402168CA694CF6FF739A431043EC
:1020E000C861D4E9071001432068026822F0C002E9
:1020F00011430160D4E9030101432068826848F27A
:10210000FF339A4311438160D4E9050108432168F4
:10211000CA6822F0FF021043C86001E00EE016E03A
:102120002068016841F0010101602564202084F8E5
:102130003D00256384F83E50002070BD01EB410650
:10214000431EB3FBF6F35B1CB3E70120C2E701EBD0
:102150004101401EB0FBF1F0401CC0F30B00B7E79B
:10216000A086010080841E0000093D0040420F004F
:102170002DE9FF4F83B09A46DDE911979346044657
:10218000DDF84080FFF72AFF054694F83D0020283F
:102190007FD11923012240492046009500F0C4FC5C
:1021A000002876D194F83C00012872D0012084F8F0
:1021B0003C0020680168C90703D1016841F00101B2
:1021C00001602068016821F400610160212084F829
:1021D0003D00402084F83E0000262664C4F8248098
:1021E000A4F82A90608D20852C48E062CDE9007526
:1021F00053465A462046049900F01CFC70B930E062
:102200002A463946204600F00EFD58B1206C0428BD
:1022100004D12068016841F400710160012007B019
:10222000BDE8F08F606A216800780861606A401C30
:102230006062218D491E89B22185628D521E6285A0
:1022400022685369DB435B070BD469B100781061E6
:10225000606A401C6062208D401E2085608D401E9B
:102260006085208D0028CBD12A463946204600F0D3
:1022700035FC0028CAD154F83D0B016841F40071C7
:102280000160202004F81E09E67766770020C6E783
:10229000FFE70220C3E70000020010000000FFFF7C
:1022A00010B586B000210091019102910391006860
:1022B0000F4988421AD10F4CA06940F00800A06174
:1022C000A069694600F008000490C0200090122028
:1022D0000190032003900848FFF78AFDE06940F46D
:1022E0000010E061E06900F40010049006B010BD39
:1022F0000054004000100240000C01400248816878
:10230000027811448160704700000020074810B532
:10231000016841F010010160032000F067F80F2010
:1023200000F006F800F024F8002010BD0020024064
:1023300070B50D4D04464FF47A712878B1FBF0F07A
:102340000A490968B1FBF0F000F0DEFA48B9102C38
:1023500007D200222146501E00F028F800206C60B1
:1023600070BD012070BD0000000000200C000020A6
:102370000C4808B5816941F001018161816901F072
:1023800001010091C16941F08051C161C06900F053
:10239000805000900448416821F0E06141F0807174
:1023A000416008BD0010024000000140F0B40E4B37
:1023B0001B680C46C3F30223C3F10705042D00D9A3
:1023C0000425191D072901D2002300E0DB1E012688
:1023D00006FA05F1491E214099409E40761E16409E
:1023E0003143F0BC00F046BF0CED00E0064900F0C0
:1023F000070208684FF6FF03184040EA0220034A2C
:1024000010430860704700000CED00E00000FA0582
:102410002DE9F0470F46050061D0434E306800F0CB
:102420000700B84209D2306820F007003843306016
:10243000306800F00700B84251D128683B4C810752
:1024400012D5400703D5606840F4E06060602878EA
:10245000000703D5606840F4605060606068A96858
:1024600020F0F000084360602878C00728D0686832
:10247000012810D02168022810D0890700292EDAFF
:10248000616821F0030101436160FFF7A7FD804609
:1024900041F288390DE021688903EFE78901EDE712
:1024A000FFF79CFDA0EB0801494502D90320BDE8D8
:1024B000F0876068696800F00C00B0EB810FEFD125
:1024C000306800F00700B8420BD9306820F00700F0
:1024D00038433060306800F00700B84201D0012076
:1024E000E5E72878400705D56068E96820F4E060F2
:1024F000084360602878000706D56068296920F4E1
:10250000605040EAC100606000F038F86168084A35
:10251000C1F30311515CC8400649086006480068D1
:10252000FFF706FF0020C2E7002002400010024033
:10253000503300080C000020040000200448054926
:1025400000684968044AC1F30221515CC8407047E1
:102550000C000020001002406033000804480549C8
:1025600000684968044AC1F3C221515CC840704701
:102570000C000020001002406033000812A185B05A
:102580000FC98DE80F0014A0144A00680490516828
:10259000134801F00C03042B10D0082B0ED1C1F30B
:1025A0008343C9031DF803000AD5516804AAC1F387
:1025B0004041515C0A4A5043B0FBF1F005B070470E
:1025C00008494843FAE70000020304050607080922
:1025D0000A0B0C0D0E0F101001020000001002403B
:1025E00000127A0000093D002DE9F84F040070D078
:1025F0002078C04DC00749D06868C0F38100012829
:1026000007D06868C0F38100022809D16868C00358
:1026100006D52868800339D560680028E7D035E002
:102620006068B0F5803F0BD010B1B0F5A02F11D08D
:10263000286820F480302860286820F4802002E098
:10264000286840F480302860606890B1FFF7C6FCCD
:1026500006460AE0286840F480202860F0E700BFC2
:10266000FFF7BCFC801B642873D828688003F7D56B
:102670000CE0FFF7B3FC064605E000BFFFF7AEFC39
:10268000801B6428F0D828688003F7D420789A4EFD
:1026900080074FF001094FF0000839D5686810F045
:1026A0000C0F07D06868C0F38100022809D1686860
:1026B000C00306D42868800714D52069012808D1F2
:1026C00010E02069B0B1C6F80090FFF787FC07461C
:1026D00005E00AE1FFF782FCC01B0228C4D8286885
:1026E0008007F7D52868616920F0F80040EAC1004A
:1026F00028600DE0C6F80080FFF770FC074604E094
:10270000FFF76CFCC01B022823D828688007F7D489
:10271000207800072CD57948A169D9B1C0F800907C
:10272000FFF75CFC074604E0FFF758FCC01B0228DB
:102730000FD8686A8007F7D571484FF4FA510068DE
:10274000B0FBF1F0009000BF0098411E0091FAD25A
:102750000EE080E0C0F80080FFF740FC074604E090
:10276000FFF73CFCC01B022875D8686A8007F7D4C5
:102770002078400760D5E8690027C00008D4E869E0
:1027800040F08050E861E869012700F08050009037
:102790005C480168C90513D40168834641F480711F
:1027A0000160FFF71BFC824606E000BFFFF716FC46
:1027B000A0EB0A0064284ED8DBF80000C005F5D570
:1027C000E06801280AD008B1052813D0286A20F053
:1027D00001002862286A20F0040002E0286A40F024
:1027E00001002862E06841F2883B98B1FFF7F6FBF0
:1027F00082460BE0286A40F004002862EEE700BF42
:10280000FFF7ECFBA0EB0A0159455AD8286A80076C
:10281000F6D50CE0FFF7E2FB824605E0FFF7DEFBB2
:10282000A0EB0A0159454CD8286A8007F6D41FB19D
:10283000E86920F08050E861E06988B36968C1F315
:102840008101022944D00228C6F8608004D0FFF735
:10285000C5FB044638E034E0FFF7C0FB074604E060
:10286000FFF7BCFBC01B02282BD828688001F7D4D7
:10287000206AB0F5803F05D16868A16820F4003077
:1028800008436860D4E908010843696821F47411B9
:1028900008436860C6F86090FFF7A0FB044606E0B6
:1028A00025E000BFFFF79AFB001B022809D8286823
:1028B0008001F7D51BE000BFFFF790FB001B02284B
:1028C00002D90320BDE8F88F28688001F4D40EE017
:1028D0000128F7D06868226A00F48031914204D15F
:1028E000616A00F47010884201D00120EAE70020FC
:1028F000E8E700000010024000004242800442422B
:102900000C0000200070004010B5401EB0F1807F28
:1029100001D3012010BD4FF0E02460610F2160174A
:1029200000F0A8FC0020A06107202061002010BD5D
:1029300070B5040004D094F83D00002510B106E005
:10294000012070BD84F83C50204600F023F824207C
:1029500084F83D002068C16821F40051C160204620
:1029600000F0F2FB2068016921F4904101612068C8
:10297000416921F02A0141612068C16841F4005198
:10298000C1602564202084F83D0084F83E000020CA
:1029900070BD000030B585B000240094019402940D
:1029A000039400681449884224D11448816941F491
:1029B00080418161816901F480410491816941F024
:1029C0000401816180690E4D00F0040004904FF411
:1029D0000070009002200190032003906946284671
:1029E000FFF706FA2815CDE9000469462846029447
:1029F000FFF7FEF905B030BD00380140001002407D
:102A000000080140FEE701684A69D24352050FD42D
:102A10006FF480624A61002140F8301F2022427327
:102A20008173026942F00402026101730120704760
:102A3000002070472DE9F843044600680D46DDE9A3
:102A4000089701689846164641F4807101604B462C
:102A500000224FF001112046009700F065F848B1C0
:102A600020680068C00502D54FF400702064032080
:102A7000BDE8F883216805F0FE0008613B464A4640
:102A80001549204600F084F888B9206841698069BA
:102A900000903A464946204600F0C5F848B1206CFF
:102AA000042804D12068016841F40071016001200C
:102AB000DEE7F5B2B8F1010F09D02168300A0861EC
:102AC0003A464946204600F0AEF80028E7D1206893
:102AD00005610020CCE700000200010070B5164639
:102AE0000D4604460DE02046FFF78DFF08B101209A
:102AF00070BD681C05D0FFF771FA801BA84207D88B
:102B000035B120684069C0434007ECD4002070BD57
:102B1000002044F8300F20216173A073216941F037
:102B2000200121612073E2E72DE9F0471E4690461F
:102B30000D460446C1F30747DDF8209008E0701CFD
:102B400006D0FFF74BFAA0EB0900B0420FD876B1E0
:102B50002068012F18D0806925EA00000004000CCD
:102B600014D000214145EAD00020BDE8F0870020C4
:102B700044F8300F20216173A073216941F02001D6
:102B8000216120730120F0E74069E5E70121E9E7D1
:102B90002DE9F0479A4691460E46044600254FF02F
:102BA0002008C1F3074725E020684069C04340057D
:102BB00014D42068016841F40071016021686FF449
:102BC00080604861256384F83D8084F83E50206C25
:102BD00040F00400206484F83C501FE0B9F1FF3F4E
:102BE00008D0FFF7FBF9A0EB0A0149450CD8B9F171
:102BF000000F09D02068012F13D0806926EA000059
:102C00000004000C0BD0CFE744F8305F84F80D804F
:102C1000A573206940F02000206125730120BDE8E4
:102C2000F0874069EAE770B516460D4604460DE0A8
:102C30002046FFF7E8FE08B1012070BD681C05D0F2
:102C4000FFF7CCF9801BA84207D835B1206840694E
:102C5000C0430006ECD4002070BD002044F8300FC3
:102C600020216173A073216941F02001216120734B
:102C7000E2E7000070B586B000241C48009401947F
:102C800002940394816941F010018161816901F02E
:102C900010010491816941F020018161816901F095
:102CA00020010491816941F004018161816901F091
:102CB00004010491816941F00801816180690C4E31
:102CC00000F008004FF400550490002229463046D9
:102CD000FFF77EF901200095CDE901040220039061
:102CE00069463046FFF784F806B070BD0010024018
:102CF000001001400D4810B50B4901600C494160BE
:102D000000214FF480428160C0E90312416181617A
:102D1000C1610162FFF768F9002803D0BDE81040E7
:102D2000FFF751B810BD0000005400401000002013
:102D3000A08601000C4810B50A4901604FF4E1314A
:102D40004160002181600C22C160C0E904128161F0
:102D5000C161FFF7EDFD002803D0BDE81040FFF78B
:102D600032B810BD0038014064000020FEE7FEE7E5
:102D700030B40021084B0A465FF0000003EBC004AA
:102D8000401CC0B262548028F8D3491CC9B208293B
:102D9000F2D330BC00F08AB8A800002010B57F281C
:102DA00016D83F2914D80723A3EBD10301F007015C
:102DB000C1F107040121A140064CDBB204EBC000C5
:102DC000002AC25CC9B201D00A4300E08A43C2545F
:102DD00010BD0000A800002010B50021AE2000F0BA
:102DE0003EF90021D52000F03AF90021502000F0F2
:102DF00036F90021A82000F032F900213F2000F030
:102E00002EF90021D32000F02AF90021084600F015
:102E100026F90021402000F022F900218D2000F049
:102E20001EF90021142000F01AF90021202000F0E2
:102E300016F90021022000F012F90021A12000F073
:102E40000EF90021C02000F00AF90021DA2000F07C
:102E500006F90021122000F002F90021812000F083
:102E6000FEF80021EF2000F0FAF80021D92000F050
:102E7000F6F80021F12000F0F2F80021DB2000F04C
:102E8000EEF80021302000F0EAF80021A42000F044
:102E9000E6F80021A62000F0E2F80021AF2000F0C3
:102EA000DEF8BDE81040FFF763BF000070B5114EBB
:102EB000002400BF04F1B000C0B2002100F0CFF840
:102EC0000021084600F0CBF80021102000F0C7F8E0
:102ED0005FF0000506EBC5000121005D00F0BFF8C2
:102EE0006D1CEDB2802DF5D3641CE4B2082CE1D347
:102EF00070BD0000A80000202DE9FF4F1D460C46C4
:102F00008946580700D0012000EBD50069084843E6
:102F1000203A00F0FF0A02F0FF0B002639E00C2DEA
:102F20000FD0102D11D0182D35D11C490BEBCB0033
:102F300001EB80004FF00008875D380609D50D9A37
:102F40000AE00BEB4B001649F2E7164901EB0B10B8
:102F5000F0E70D9890B1002221460098FFF71EFF80
:102F60007806641C070EE4B2A4EB0900A84207D15E
:102F700000984C46401CC0B2009008E00122EBE7EC
:102F800008F1010000F0FF08B8F1080FD5D3761C56
:102F9000F6B25645C3D3BDE8FF8F0000CC3D000814
:102FA00068330008DC3700082DE9F84F04461F4657
:102FB000802016460D46A0EB5709C3F140084FF09C
:102FC000010A16E0A14502D20024E819C5B2A845BD
:102FD00003DA00242546FFF7CBFECDF800A03278B7
:102FE0003B4629462046FFF787FF04EB5700C4B253
:102FF000761C307820385E28E4D9BDE8F88F2DE9BA
:10300000F8431F4615468846044600261FE08020E8
:10301000A0EB5700A04204D208EB0700002400F008
:10302000FF08C7F14001414503DA0024A046FFF73D
:103030009FFE012000902A783B4641462046FFF73C
:103040005BFF761C04EB5700C4B2F6B26D1C287807
:1030500020385E2801D80F2ED9D3BDE8F88309B1F6
:1030600000F0E2B800F0CEB80FB42DE9F0438BB019
:103070000D461646804616AB00211F460846159A97
:10308000FDF752F9401C0446FDF7F8F881463B462F
:103090002146159AFDF748F9681E0F2802D2E80666
:1030A000040E00E000244A460CA16846FDF756F9DC
:1030B000102E33466A46414620460BD0FFF774FF78
:1030C000FFF7F4FE4846FDF708F90BB0BDE8F00342
:1030D0005DF814FBFFF793FFF2E700002573000093
:1030E00070477047FFF70AB930B58FB0282168469E
:1030F000FDF774FA14210AA8FDF770FA01210804FB
:10310000CDE900100024029402250491CDE9075076
:103110004FF4E01009906846FFF766FA08B172B6FE
:10312000FEE70F20CDE90A054FF48060CDE90C40A1
:1031300002210AA80E94FFF76BF9002801D072B69D
:10314000FEE70FB030BD704770B5044600680169F6
:10315000E26821F44051114301612169A0680843EC
:10316000616908432168CA6841F20C639A430243CB
:10317000CA6020684169A26921F44071114341612C
:103180001E492068884202D1FFF7E8F901E0FFF705
:10319000D5F900EBC00101EB0012606864218000EA
:1031A000B2FBF0F3B3FBF1F36FF018067343B2FB1D
:1031B000F0F5B2FBF0F605EB8305322303EB0515C2
:1031C000B5FBF1F5B6FBF1F605F0F00505EB0615DC
:1031D000B2FBF0F6B2FBF0F0B0FBF1F06FF01802CA
:1031E000504306EB800003EB0010B0FBF1F02168C8
:1031F00000F00F002844886070BD000000380140D6
:10320000FEE7000001B584B0012104A864228DE826
:1032100007000B46002278210248FEF7A9FF05B0FF
:1032200000BD00001000002001B584B0012104A8F9
:1032300064228DE807000B46402278210248FEF701
:1032400097FF05B000BD000010000020490050EAC3
:10325000C12018BF04204A0D18BF40F0010040F201
:10326000FF72B2EB515F08BF40F00200012808BFB7
:10327000052070470907090E002804DB00F1E02053
:1032800080F80014704700F00F0000F1E02080F893
:10329000141D704730380A2801D2012070470020E1
:1032A0007047000008B50024FFF730F8FFF71CFF57
:1032B000FFF7E0FCFFF71EFDFFF73CFDFFF78CFD7D
:1032C000FFF756FD4FF4FA75641C002104A3102289
:1032D00008460094FFF7C8FE2846FEF777FDF3E79F
:1032E000636F756E74203D2025642043000000004C
:1032F00010B500290AD00878002807D0054878447E
:10330000FEF750F9002801D0002010BD0248784493
:1033100010BD00004A1900004219000010B5002934
:103320000AD00878002807D005487844FEF73AF913
:10333000002801D0002010BD0248784410BD0000D4
:103340003A19000032190000FDF700BDFDF734BE48
:103350000000000000000000010203040607080945
:103360000000000001020304000000000000000053
:1033700000000000000000003F40000000000000CE
:1033800000003000400030004000000009000BC089
:103390003D000BC03D00090018C024407FE02240E2
:1033A00031800000180024C01B000D8032400180D5
:1033B00003801C4027401C80074000401000600034
:1033C00000000000000000000000000000001F805E
:1033D000204040200000402020401F8000000000CE
:1033E000090006001F800600090000000400040018
:1033F0003F80040004000000001000600000000096
:1034000000000000040004000400040004000000A8
:10341000000000400000000000000000002001C08B
:1034200006003800400000001F802040204020405F
:103430001F800000000010403FC00040000000005E
:1034400018C0214022402440184000001080204035
:10345000244024401B80000002000D0011003FC0EA
:10346000014000003C802440244024402380000090
:103470001F8024402440344003800000300020009E
:1034800027C03800200000001B8024402440244036
:103490001B8000001C0022C0224022401F80000030
:1034A00000000000084000000000000000000000D4
:1034B0000460000000000000000004000A00110089
:1034C00020804040090009000900090009000000AF
:1034D00000004040208011000A0004001800200075
:1034E00023402400180000001F802040274029406E
:1034F0001F400000004007C039000F0001C000401D
:1035000020403FC0244024401B8000001F802040FA
:10351000204020403080000020403FC0204020401C
:103520001F80000020403FC024402E4030C00000DB
:1035300020403FC024402E00300000000F001080CB
:10354000204022403380020020403FC0040004009D
:103550003FC02040204020403FC02040204000008D
:103560000060202020203FC02000200020403FC0DD
:1035700024400B0030C0204020403FC0204000408D
:10358000004000C03FC03C0003C03C003FC0000002
:1035900020403FC00C4023003FC020001F8020403F
:1035A000204020401F80000020403FC024402400D5
:1035B000180000001F802140214020E01FA00000D3
:1035C00020403FC02440260019C0004018C02440BD
:1035D0002440224031800000300020403FC0204085
:1035E0003000000020003F80004000403F8020006D
:1035F00020003E0001C0070038002000380007C04E
:103600003C0007C038000000204039C0060039C027
:10361000204000002000384007C038402000000053
:10362000304021C02640384020C00000000000008B
:103630007FE0402040200000000070000C0003806C
:10364000004000000000402040207FE0000000001B
:1036500000002000400020000000000000100010CA
:1036600000100010001000100000000040000000DA
:1036700000000000000002800540054003C000403B
:1036800020003FC00440044003800000000003808D
:103690000440044006400000000003800440244031
:1036A0003FC000400000038005400540034000008B
:1036B000000004401FC0244024402000000002E01D
:1036C000055005500650042020403FC0044004002F
:1036D00003C000400000044027C00040000000007C
:1036E00000100010041027E00000000020403FC040
:1036F0000140070004C00440204020403FC000407B
:103700000040000007C0040007C0040003C0000020
:10371000044007C00440040003C0004000000380D0
:103720000440044003800000041007F004500440EB
:1037300003800000000003800440045007F00010E4
:10374000044007C0024004000400000000000640DE
:103750000540054004C00000000004001F80044034
:1037600000400000040007800040044007C0004003
:103770000400070004C0018006000400060001C028
:10378000070001C006000000044006C0010006C09A
:10379000044000000410071004E00180060004004B
:1037A0000000044005C00640044000000000000086
:1037B00004007BE040200000000000000000FFF05B
:1037C00000000000000040207BE00400000000003A
:1037D0004000800040002000200040000000000069
:1037E00000000000000000000000000000000000D9
:1037F00000001FCC000C00000000000000000800CA
:10380000300060000800300060000000022003FC6F
:103810001E20022003FC1E200220000000000E18C3
:1038200011043FFF10840C78000000000F0010848A
:103830000F3800C0077818840078000000780F84E3
:1038400010C411240E9800E40084000808006800E9
:1038500070000000000000000000000000000000F8
:10386000000007E018182004400200000000400299
:103870002004181807E00000000000000240024089
:1038800001800FF0018002400240000000800080B3
:1038900000800FF800800080008000000001000D13
:1038A000000E00000000000000000000000000808A
:1038B0000080008000800080008000800000000CFC
:1038C000000C0000000000000000000000000006E6
:1038D000001800600180060018002000000007F0BA
:1038E000080810041004080807F00000000008048D
:1038F00008041FFC000400040000000000000E0C7F
:1039000010141024104411840E0C000000000C1838
:1039100010041104110412880C700000000000E073
:103920000320042408241FFC0024000000001F982A
:10393000108411041104108810700000000007F0BA
:1039400008881104110418880070000000001C0091
:10395000100010FC13001C001000000000000E38C6
:1039600011441084108411440E3800000000070038
:10397000088C10441044088807F000000000000084
:103980000000030C030C0000000000000000000019
:10399000000101060000000000000000000000809F
:1039A0000140022004100808100400000220022038
:1039B0000220022002200220022000000000100449
:1039C00008080410022001400080000000000E00E2
:1039D0001200100C106C10800F00000003E00C1897
:1039E00013E4142417C4082807D000000004003C86
:1039F00003C41C40074000E4001C000410041FFC2A
:103A00001104110411040E880070000003E00C186A
:103A100010041004100410081C10000010041FFCF7
:103A2000100410041004080807F0000010041FFC24
:103A30001104110417C410040818000010041FFC1E
:103A40001104110017C010000800000003E00C185A
:103A50001004100410441C780040000010041FFCE7
:103A600010840080008010841FFC100400001004EB
:103A700010041FFC100410040000000000030001EB
:103A8000100110011FFE10001000000010041FFCA8
:103A9000110403801464181C1004000010041FFC9F
:103AA0001004000400040004000C000010041FFCBB
:103AB0001F0000FC1F001FFC1004000010041FFC6E
:103AC0000C04030000E010181FFC100007F00808A9
:103AD000100410041004080807F0000010041FFC74
:103AE00010841080108010800F00000007F008186C
:103AF00010241024101C080A07F2000010041FFCF8
:103B00001104110011C011300E0C000400000E1C35
:103B100011041084108410441C3800001800100098
:103B200010041FFC100410001800000010001FF803
:103B300010040004000410041FF8100010001E0000
:103B400011E0001C007013801C0010001FC0103C0E
:103B500000E01F0000E0103C1FC000001004180C23
:103B6000163401C001C01634180C100410001C00DB
:103B7000130400FC13041C00100000000804101CB7
:103B80001064108413041C041018000000000000CE
:103B900000007FFE400240024002000000003000B2
:103BA0000C0003800060001C0003000000004002C5
:103BB000400240027FFE0000000000000000000004
:103BC00020004000400040002000000000010001F3
:103BD000000100010001000100010001000040009F
:103BE00040002000000000000000000000000098DD
:103BF000012401440144014400FC000410001FFCA6
:103C000000880104010400880070000000000070BA
:103C10000088010401040104008800000000007015
:103C200000880104010411081FFC0004000000F8D2
:103C3000014401440144014400C8000000000104A3
:103C400001040FFC1104110411001800000000D63B
:103C500001290129012901C90106000010041FFCE6
:103C6000008401000100010400FC000400000104C4
:103C7000190419FC00040004000000000000000307
:103C800000010101190119FE0000000010041FFCD1
:103C90000024004001B4010C0104000000001004E5
:103CA00010041FFC0004000400000000010401FCDB
:103CB0000104010001FC0104010000FC010401FCFD
:103CC000008401000100010400FC0004000000F871
:103CD000010401040104010400F80000010101FFD6
:103CE00000850104010400880070000000000070DD
:103CF000008801040104010501FF00010104010421
:103D000001FC00840104010001800000000000CCDF
:103D10000124012401240124019800000000010075
:103D2000010007F80104010400000000010001F88F
:103D3000000400040004010801FC000401000180EB
:103D40000170000C001001600180010001F0010C05
:103D5000003001C00030010C01F00100000001043E
:103D6000018C00740170018C0104000001010181CB
:103D70000171000E00180160018001000000018443
:103D8000010C013401440184010C0000000000001A
:103D90000000000001003EFC400240020000000064
:103DA00000000000FFFF00000000000000004002D3
:103DB00040023EFC01000000000000000000600026
:103DC0008000800040004000200020000000000033
:103DD00000000000000000000000000000000000E3
:103DE00000000000000000000000000000000000D3
:103DF0000000000000000000000000000000000FB4
:103E000080380FFE380F80380000000000000000EE
:103E1000000000000000000000000100000600009B
:103E20000C00003800003100000600000C000038D3
:103E3000000030000000000000000000618000670A
:103E4000F807F98000618000618000618000618076
:103E50000067F807F98000618000000000000000A2
:103E6000000001C0E003E0F00630080418081FFF5E
:103E7000FE040E080787F00381E000000000000048
:103E800001F000060C00040408060C7001F9C000E3
:103E90000E00003BE000EC18070808040C180003B3
:103EA000E00000000001E00007F003F818041C081F
:103EB00004170807E1D003C0E00023B0003C08006D
:103EC0002008000010000000000000010000310088
:103ED000003200001C000000000000000000000094
:103EE00000000000000000000000000000000000D2
:103EF0000000000000000000000000007F0001FF43
:103F0000C00780F00C001810000420000200000020
:103F10000000002000021000040C00180780F001CF
:103F2000FFC0007F00000000000000000000000053
:103F30000000000000000000420000660000660073
:103F4000003C0000180003FFC0001800003C000007
:103F50006600006600004200000000000800000843
:103F60000000080000080000080001FFC000080071
:103F70000008000008000008000008000000000021
:103F8000000100003100003200001C0000000000B1
:103F90000000000000000000000000000000000021
:103FA00000000000080000080000080000080000F1
:103FB00008000008000008000008000008000008D1
:103FC0000000000000000000000000003800003881
:103FD00000003800000000000000000000000000A9
:103FE00000000000000000000000000000060000CB
:103FF0001C000070000180000E0000380000C000AE
:104000000700001C0000300000000000000000005D
:104010007F8001FFE00380700600180400080400A0
:104020000806001803807001FFE0007F8000000098
:104030000000000000000100080100080100080362
:10404000FFF807FFF8000008000008000008000063
:104050000000000000000001C03802C058040098B1
:10406000040118040218040418061C1803F81801A7
:10407000E0F800000000000000000001C0E003C004
:10408000F004000804080804080806180803F418D7
:1040900001E7F00001E00000000000000000000067
:1040A0000300000D00001100006100008108030101
:1040B0000807FFF80FFFF8000108000108000000E2
:1040C0000000000000E007FCD00608080610080603
:1040D0001008061008061838060FF00607C0000082
:1040E00000000000000000003F8001FFE00384307A
:1040F0000208180410080410080410080718100318
:104100000FF00007C000000000000000000003C026
:10411000000700000600000600F80607F806180071
:1041200006E000070000060000000000000000019B
:10413000E1E003F7F0063410041808041808040C32
:1041400008040C0806161803F3F001C1E000000093
:1041500000000000F80003FC3003063804020804E5
:1041600002080402080404100308F001FFC0007FE5
:10417000000000000000000000000000000000003F
:104180000000000070380070380070380000000037
:10419000000000000000000000000000000000001F
:1041A0000000000000000000301A00301C00000079
:1041B00000000000000000000000000000000000FF
:1041C00000000008000014000022000041000080F0
:1041D00080010040020020040010080008000000D8
:1041E000000000002100002100002100002100004B
:1041F00021000021000021000021000021000021F9
:10420000000000000000000000000800080400108A
:1042100002002001004000808000410000220000D8
:10422000140000080000000000000003C00004C0EB
:1042300000040000080038080F380808380810008B
:104240000C300007E00003C0000000000000000088
:104250003F8000FFE0038070020F1006708804C0EA
:1042600088048308047F8802C09003012000FE4078
:104270000000080000180001F8003E0801C2000715
:10428000020007E20000FE00001FC80001F8000065
:104290003800000804000807FFF807FFF8040808C2
:1042A00004080804080804080806180803F418019C
:1042B000E7F00001E0000000000000003F8001FF87
:1042C000E0038070020018040008040008040008DD
:1042D0000400100600200780C0000000040008074A
:1042E000FFF807FFF80400080400080400080400B1
:1042F0001802001003807001FFE0007F80000000C2
:1043000004000807FFF807FFF80408080408080479
:104310000808040808043E08040008060018010004
:104320006000000004000807FFF807FFF804080811
:10433000040800040800040800043E00060000060B
:104340000000018000000000000000003F8001FF2D
:10435000E003807006001804000804020804020844
:104360000203F00783F000020000020004000807C7
:10437000FFF807FFF804080800080000080000081C
:104380000000080004080807FFF807FFF804000809
:1043900000000000000004000804000804000807F2
:1043A000FFF807FFF80400080400080400080000F4
:1043B00000000000000000000006000007000001EF
:1043C00004000104000104000307FFFE07FFFC04D2
:1043D000000004000004000004000807FFF807FFC5
:1043E000F8040C08001800003E0004C7800503C84C
:1043F0000600F8040038040018000008040008074C
:10440000FFF807FFF804000800000800000800009B
:10441000080000080000080000180000600000000C
:1044200004000807FFF807800807FC00007FC000B1
:1044300003F80007C000780007800807FFF807FFAF
:10444000F804000804000807FFF807000803C0008C
:1044500000E000003800001E000007000001C0045A
:1044600000F007FFF8040000000000007F8001FF5B
:10447000E003807006001804000804000806001815
:1044800003003001FFE0007F800000000400080707
:10449000FFF807FFF80404080404000404000404FF
:1044A00000040400060C0003F80001F00000000006
:1044B000000000007F8001FFE00380700600880498
:1044C00000880400C806003C03003E01FFE6007FB0
:1044D0008400000004000807FFF807FFF80408083C
:1044E000040800040C00040F00040BC00610F003C5
:1044F000F03801E00800000800000001E0F803F0D7
:1045000030063010041808041808040C08040C08BD
:104510000206180207F00781E00000000180000693
:10452000000004000004000004000807FFF807FF73
:10453000F8040008040000040000060000018000E8
:1045400004000007FFE007FFF00400180000080067
:10455000000800000800000800000804001007FF21
:10456000E004000004000006000007E00007FE0071
:10457000041FE00001F80000380001E0043E0007DD
:10458000C00006000004000004000007E00007FF70
:10459000C0041FF80007C007F80007FF80043FF8B9
:1045A0000007C004F8000700000400000000000439
:1045B000000806001807C07805F1C8003E00001F7B
:1045C000800463E80780F806001804000800000073
:1045D00004000006000007800007E008047C0800D3
:1045E0001FF80007F800180804E00807000006009C
:1045F000000400000000000100080600380400F874
:104600000403E8040F08047C0805F00807C0080745
:10461000001804006000000000000000000000001E
:10462000000000000000003FFFFE2000022000020A
:104630002000022000022000020000000000000014
:10464000000008000007000000C00000380000065D
:10465000000001C000003000000E0000010000005A
:1046600000000000000020000220000220000220C4
:1046700000022000023FFFFE0000000000000000DA
:104680000000000000000000000000000008000022
:104690001000003000002000003000001000000872
:1046A0000000000000000000000001000001000008
:1046B00001000001000001000001000001000001F4
:1046C00000000100000100000100000100000000E6
:1046D000000000000020000020000010000010007A
:1046E00000000000000000000000000000000000CA
:1046F0000000000000F00019F8001B18002208005C
:104700002608002408002410003FF8001FF80000CD
:104710000800001800000004000007FFF80FFFF079
:1047200000181800100800200800200800301800A9
:104730001FF0000FC00000000000000007C0001FB5
:10474000F0001830002008002008002008003C0875
:10475000001C1000006000000000000000000000CD
:1047600007C0001FF00038180020080020080020B3
:104770000804101007FFF80FFFF000001000000001
:104780000000000000000007C0001FF00012300011
:104790002218002208002208003208001E10000E15
:1047A0002000000000000000200000200800200879
:1047B00001FFF803FFF8062008042008042008077A
:1047C000200003000000000000000000000E000EAA
:1047D0006E001FF30031B10020B10020B100319113
:1047E000001F13002E1E00200E00300000000004E9
:1047F000000807FFF80FFFF8001008002000002055
:1048000000002008003FF8001FF80000080000002A
:10481000000000000000002008002008002008061A
:104820003FF8063FF80000080000080000080000FC
:104830000000000000000000000000000300000372
:10484000002001002001002003063FFE063FFC007F
:10485000000000000000000000000004000807FF46
:10486000F80FFFF8000188000300002FC00038F89F
:1048700000203800200800000800000000000000B0
:10488000000004000804000804000807FFF80FFFF8
:10489000F800000800000800000800000000000008
:1048A000002008003FF8003FF8001008002000003A
:1048B0003FF8003FF8001008002000003FF8003FDC
:1048C000F8000008000000002008003FF8003FF852
:1048D000001008001000002000002008003FF80031
:1048E0001FF80000080000000000000007C0000FD3
:1048F000F0001830003008002008002008003008C0
:10490000001830000FF00007C00000000000000099
:104910002001003FFF003FFF001011002009002090
:1049200008002008003038001FF0000FC000000011
:104930000000000007C0001FF00038180020080029
:104940002008002009001011001FFF003FFF000099
:1049500001000000002008002008002008003FF8A7
:10496000003FF800080800100800200800200000A0
:104970003000003000000000000000000000000CCB
:1049800078001E1800330800230800210800218841
:104990000021980030F000386000000000000000A6
:1049A000200000200000200000FFF003FFF800209E
:1049B000080020080020080000300000000000006F
:1049C000000000002000003FF0007FF80000180009
:1049D0000008000008002010003FF8007FF00000F1
:1049E00010000000000000002000003000003C002B
:1049F000003F800023F0000078000070002380005A
:104A00003C00003000002000002000003C00003F7F
:104A1000E00023F80000E0002700003E00003FE037
:104A20000021F80001E0003E00002000000000002E
:104A30002008002008003838003E68002780000366
:104A4000C8002CF8003838002018002008000000AA
:104A5000000000002000003003003C01003F830004
:104A600023EC000070002380003C000020000020A8
:104A7000000000000000000000000038080020389E
:104A80000020F80023E8002F88003E0800380800C6
:104A9000201800007000000000000000000000006E
:104AA000000000000000000008000014001FF7FCD8
:104AB000300006200002000000000000000000009E
:104AC0000000000000000000000000000000FFFFE8
:104AD000FF000000000000000000000000000000D7
:104AE0000000000000002000023000061FF7FC005C
:104AF000140000080000000000000000000000009A
:104B000000000000000000180000600000400000ED
:104B10004000002000001000000800000400000415
:104B200000000C000010000004000008000000005D
:104B30000000000200010000100000000000000062
:104B400000000000303132333435363738394142D5
:104B500043444546403058003031323334353637DF
:104B600038396162636465664030780030313233D1
:104B70003435363738396162636465667870003081
:104B8000313233343536373839414243444546585B
:104B90005000000002400000000000A000000000E3
:104BA00005400000000000C8000000000C400000AC
:104BB0000000409C00000000194000000020BCBE26
:104BC0000000000034400000BFC91B8E000000043C
:104BD000B5400000504BCFD06607E2CF0100000087
:104BE0006C4100003E8251AADFEEA73401000000B4
:104BF000D9420000DCB5A0E23A301F97FFFFFFFF6B
:104C0000B4450000FD25A0C8E9A3C14FFFFFFFFF89
:104C1000FF3F00000000008000000000FF3F000098
:104C20000000008000000000744D0008000000201B
:104C30001000000028010008844D0008100000202A
:104C4000F80A0000440100081C00000043000000B6
:104C5000F8FFFFFF0C0000000E0000000F00000036
:104C60002E0000001001000043000000F8FFFFFFCD
:104C7000004040404040404040404141414141406F
:104C80004040404040404040404040404040404024
:104C900040050202020202020202020202020202B3
:104CA00002202020202020202020200202020202B8
:104CB0000202909090909090101010101010101010
:104CC000101010101010101010101010020202021C
:104CD0000202888888888888080808080808080860
:104CE000080808080808080808080808020202025C
:104CF0004000000000000000000000000000000074
:104D000000000000000000000000000000000000A3
:104D10000000000000000000000000000000000093
:104D20000000000000000000000000000000000083
:104D30000000000000000000000000000000000073
:104D40000000000000000000000000000000000063
:104D50000000000000000000000000000000000053
:104D60000000000000000000000000000000000043
:104D70000000000001000000100000000000000022
:044D80000024F40017
:04000005080000ED02
:00000001FF
